:10000000FEC0000031C100002FC100002DC1000062
:10001000B2C7000029C1000027C1000025C10000AF
:1000200023C1000021C100001FC100001DC100004C
:100030001BC1000019C1000017C1000015C100005C
:1000400071C7000011C100000FC100000DC1000008
:100050000BC1000009C1000007C1000005C100007C
:1000600003C1000001C10000FFC00000FDC000008E
:10007000FBC00000F9C0000092C60000BDC6000031
:10008000B6C60000BEC60000EFC00000EDC0000014
:10009000EBC00000E9C00000E7C00000E5C00000C0
:1000A000E3C00000E1C0000014C70000DDC0000094
:1000B000DBC00000D9C00000D7C00000D5C00000E0
:1000C000D3C00000D1C00000CFC00000CDC00000F0
:1000D000CBC00000C9C00000C7C00000C5C0000000
:1000E000C3C00000C1C0000052544320696E69744F
:1000F00069616C697A6564207573696E6720584F11
:10010000534333324B00584F534333324B207374B5
:1001100061727465642E20496E697469616C697AD4
:10012000696E67205254432E0052544320696E6911
:100130007469616C697A6564207573696E67204FB4
:100140005343554C5033324B00584F534333324B8B
:100150002073746172747570204641494C454400A7
:10016000434C4B4354524C5F584F534333324B53E1
:100170005F626D3A20004D434C4B535441545553EC
:100180003A2000584F534333324B4354524C413A78
:10019000200057616974696E6720666F7220584F3E
:1001A000534333324B20746F2073746172742E2E5C
:1001B0002E00000000006410B71DC8206E3BAC305C
:1001C000D9269041DC76F4516B6B5861B24D3C718D
:1001D00005502083B8ED44930FF0E8A3D6D68CB336
:1001E00061CBB0C2649BD4D2D38678E20AA01CF261
:1001F000BDBD000E100412140C000C00E507112404
:100200001FBECFEFCDBFDFE7DEBF80914000809300
:100210004000811105C098ED21E094BF209341007A
:100220008CBB11E4A0E0B0E4E2E1FDE100E00BBF33
:1002300002C007900D92A234B107D9F725E4A2E4D9
:10024000B1E401C01D92A13AB207E1F710E0CFEF8F
:10025000D0E004C02197FE010E946F0ECE3FD1076F
:10026000C9F7EED60C94870ECBCEE0910B44F091FB
:100270000C448581837009F442C0838180FF3FC0B4
:1002800050910F445E7F30E020E090E04581842F64
:1002900083702F5F3F4F213167E2360740F0823095
:1002A00041F1813041F184E093E09483089543FF6C
:1002B00004C088E0858382E1F7CF813021F4578341
:1002C00030E020E0E3CF823009F746FFDFCF44FF84
:1002D00004C0992349F383E0E7CF80911044981735
:1002E00060F4A92FB0E0A55EBB4B8C9180879F5F27
:1002F000E7CF85E0D9CF81E1D7CF80E0D5CF80E1CE
:100300000895E0910B44F0910C448385837019F4B7
:1003100083858170089582E008959FB7F894E091F5
:100320002A0BF0912B0B8091260B2091C24130912A
:10033000C3414091C4415091C5419FBF80FF08C057
:10034000E43981E1F80720F42F5F3F4F4F4F5F4FB3
:100350000F011694079416940794F00116940794CD
:1003600016940794E019F109169407940694102C3A
:1003700016941694011816941694010C1124E00D8D
:10038000F11DA8EEB3E00E94650E6E0F7F1F811D68
:10039000911D08958F929F92AF92BF92CF92DF925C
:1003A000EF92FF924B015C01B8DF6B017C01B5DF7E
:1003B0006C197D098E099F09683E7340810591057E
:1003C000B0F321E0821A9108A108B10888EEC80EA6
:1003D00083E0D81EE11CF11C81149104A104B10436
:1003E00031F7FF90EF90DF90CF90BF90AF909F904C
:1003F0008F900895AF92BF92CF92DF92EF92FF92CB
:100400000F931F93CF93DF936C017B018B01040F3C
:10041000151FEB015E01AE18BF08C017D10759F0D8
:100420006991D601ED91FC910190F081E02DC6011A
:100430000995892B79F7C501DF91CF911F910F9114
:10044000FF90EF90DF90CF90BF90AF900895FC01A8
:1004500055894689252F30E0842F90E0821B930B2D
:10046000541710F0CF96089501970895FC019389D1
:100470008489981761F0A489AE0FBF2FB11D5796DC
:100480008C9194899F5F9F73948B90E008958FEF78
:100490009FEF0895FC0193898489981731F084892E
:1004A000E80FF11D878990E008958FEF9FEF089581
:1004B000FC0193892489892F90E0805C9F4F821BE7
:1004C00091098F7399270895CF93DF93EC01E88109
:1004D000F9810680F781E02D0995EC85FD858681FF
:1004E00016828581158280E484838C898B8B1A8A9D
:1004F000DF91CF9108958F929F92AF92BF92FF921A
:100500000F931F93CF93DF938C014A015B01D22F8E
:10051000C32FDC0152968C91529780FF07C0ED915A
:10052000FC910288F389E02DC8010995D11101C021
:10053000D3E0FD2EE894F2F8DC2FD095D07CB9E61C
:100540008B16B9E89B06B9E0AB06B10428F0D2607F
:10055000B694A7949794879460E07AE582E692E057
:10056000A50194010E94430EC9012034310510F405
:1005700080E490E03C2F3B72D7FD30684D2F487CE3
:1005800030FD41605FB7F894D8011C96ED91FC9165
:100590001682F7828087918735FF8FC04F7781E081
:1005A00084878FEF85873F7D3583D683F801218946
:1005B000C08986859785FC0133E0239FE00DF11DFE
:1005C0001124659174912C1708F059C0272F46FF0C
:1005D00076C0793288F430E0F901E050F04CA08127
:1005E000AF3F51F0275D3F4BF901308120E2329F50
:1005F000F0011124FC5FA18347FF2AC021E0270FEF
:10060000293230F530E0F901E050F04CD081DF3F85
:10061000F9F0F901E75DFF4BA081F0E2AF9FD00157
:100620001124BC5F2E5A3F4BF9011081F0E0E0E04D
:10063000183030F49D01205F3F4FF901E10FF11DAB
:100640003FB7F8941296DC932081286020833FBF47
:1006500040FF15C023E0270F293288F430E0F9016C
:10066000E050F04C40814F3F51F0275D3F4BD901A6
:10067000EC91B0E2EB9FF0011124FC5F4183FC019F
:1006800023E0C29FE00DF11D112431962591349194
:10069000F901FF27EE51FA4F9081832F809589232E
:1006A000682B60835FBFDF91CF911F910F91FF9007
:1006B000BF90AF909F908F900895148674CF342F81
:1006C000307509F499CF793208F096CF30E0F9010E
:1006D000E050F04CD081DF3F09F48ECFF901E75DA7
:1006E000FF4BA081E0E2AE9FD0011124BC5F2E5AE7
:1006F0003F4BF9011081F0E0E0E0183030F49D014B
:10070000205F3F4FF901E10FF11D3FB7F8941296BA
:10071000DC932081286020833FBF6ECFFC010FB6A1
:1007200007FE04C0809111018823A1F0A485B5853E
:1007300014968C91149785FF0DC09589868998171A
:1007400039F015968C9115978F7D15968C93089599
:10075000E89462C308950F931F93CF93DF93EC0146
:100760008A89982F91609A8B2D899E8929130AC0B6
:10077000EC85FD85948195FF05C081FD0DC080E469
:10078000848312C0062F1D891F5F1F738E898113FA
:1007900015C0CE01C3DFFACF85818F77806490E4E6
:1007A0009483EC85FD858583EC85FD85628381E0FE
:1007B00090E0DF91CF911F910F910895ED89EC0F9B
:1007C000FD2FF11DE95AFF4F00831D8BEC85FD8540
:1007D0008A8981FF09C085818F77806690E4948340
:1007E000EC85FD858583E3CF85818062FBCF0F9308
:1007F0001F93CF93DF938C01D0E0C0E0F801EC0FA2
:10080000FD1F6491662339F086EC91E4A4DF892B07
:1008100011F02196F3CFCE01DF91CF911F910F916F
:100820000895682F86EC91E496CFCF93DF93EC0187
:100830008A8980FF0BC0EC85FD85858185FD03C01D
:10084000848186FD03C0CE0169DFF5CFDF91CF91B2
:10085000089581E008958091E5058C70883021F439
:100860008CE08093260408958CE08093A60408957C
:100870008091E5058370823021F48CE080934604FA
:1008800008958CE0809306040895DC011E96ED9196
:10089000FC911F97309731F01A968C91882311F0B4
:1008A00090E009940895CF93DF93EC01E881F981FA
:1008B00093858A8180618A8396FF21C090FF14C04E
:1008C0008585898791FF0CC0CE01DFDF1A861B86E4
:1008D000EC85FD85309709F00995E881F98102C022
:1008E0001A861B8683E031C080E48387CE01CDDF8A
:1008F0001A868A818F7E8A83DF91CF91089597FF30
:10090000F8CF91FF24C093FD04C094FF07C087FF78
:1009100005C08F778A8382E08287EACF80688A83E6
:100920008B818F5F8B83AB858A85A81768F4AC0FAA
:10093000BD2FB11DAC5EBE4F8C91858783E0828751
:100940008B858F5F8B87D5CF82E08287D2CF9585CD
:100950008A85823850F4FE01E80FF11DEC5EFE4FEF
:1009600090838A858F5F8A87B8CF86E082871A86D0
:100970001B86BFCFDC011C96ED91FC919381818594
:1009800013821186938391E0958381870895FC01FA
:10099000868584FF0DC0CF01805E9E4F2689E78942
:1009A000E21760F4E80FF92FF11D808190E00895BF
:1009B000CF0182569F4F2289E389F2CF8FEF9FEFBD
:1009C0000895FC018685DF0184FF10C057969F01C2
:1009D000205E3E4F86899789981778F4290F311D3C
:1009E000F90180819F5F9C9390E0089553969F0149
:1009F00022563F4F82899389EFCF8FEF9FEF089563
:100A0000FC01868584FF07C096898789292F281BCA
:100A1000330BC901089592898389F8CFCF92DF9271
:100A2000EF92FF920F931F93CF936C0143385105C0
:100A300010F042E850E0C42F7B0110E000E00C17FA
:100A400080F4D7016D917D01D601ED91FC9101906B
:100A5000F081E02DC601099598012F5F3F4F892B4A
:100A600049F4C801CF911F910F91FF90EF90DF9053
:100A7000CF9008958901E3CFFC018685DF0184FFD3
:100A800011C05696CF01805E9E4FE689E23878F419
:100A9000E80FF92FF11D60838C918F5F8C9381E0BB
:100AA00090E008955196CF014C96E189EFCF90E008
:100AB00080E0089590E080E008950F931F93CF9316
:100AC000DF938C0110920E448FEF93E47ADFC82FEE
:100AD0008FEF93E476DF20E0822B9C2B80934441C0
:100AE00090934541E801C230D105B1F08FEF93E416
:100AF00068DF809144419091454101968933910589
:100B000030F480934441909345412197ECCF10926B
:100B1000444110924541F9CF81E08093C141DF917A
:100B2000CF911F910F9108950F931F93CF93DF9350
:100B3000C0910E4410920E448091444190914541E1
:100B4000C80FD92FD11DC0934441D09345418E0188
:100B5000005E1F4F0933110510F009E310E0C15882
:100B6000DE4BCE018F5791448017910728F469918D
:100B70008FEF93E481DFF5CF81E08093C141DF9176
:100B8000CF911F910F910895DC01ED91FC910088A8
:100B9000F189E02D23E030E00994CF93DF93EC015D
:100BA000EFEFF3E480E8808B118A60E0CF0164DF2F
:100BB00069818FEF93E460DF68818FEF93E45CDFFE
:100BC000DF91CF9152CB1F93CF93DF93EC0110E8CD
:100BD00010930F441092104460E08FEF93E44CDFC9
:100BE00044DB10930F4410921244E0910B44F091B7
:100BF0000C4485818370B1F081E8878330E020E088
:100C000090E080E062E04581542F53702F5F3F4FAA
:100C1000213177E2370720F443FF1AC098E095832B
:100C2000809311448FEF93E4CCDE188289838FEF99
:100C300093E4C7DE28813981822B932B88839983A3
:100C4000DF91CF911F91089530E020E097E0DBCF56
:100C50009923A1F0523021F7948347FF12C08238C4
:100C6000A8F72085A82FB0E0A356BB4B2C938F5F2D
:100C7000813051F7648330E020E0C5CF523019F65F
:100C8000ECCF46FFC0CF93E0BECFFC010190002027
:100C9000E9F73197AF01481B590BBC0186EC91E491
:100CA000A9CB87EA90E4F1CFCF93DF93A0DDEC01ED
:100CB000F8DF8C0F9D1FDF91CF9108958F929F9247
:100CC000AF92BF920F931F93CF93DF93CDB7DEB751
:100CD000A197CDBFDEBF19A2423008F44AE08E01D1
:100CE0000F5D1F4F842E912CB12CA12CA5019401D6
:100CF000CAD7E62FB901CA01EA30D4F4E05DD801C1
:100D0000EE938D01232B242B252B81F790E080E09F
:100D1000109711F0CD01B9DFA196CDBFDEBFDF91F5
:100D2000CF911F910F91BF90AF909F908F9008959A
:100D3000E95CE5CFCF92DF92EF92FF92CF93DF9302
:100D40004A305105D1F44AE097FF17C06B017C018E
:100D50008DE267DDEC0166277727CB016C197D09F1
:100D60008E099F094AE0AADF8C0F9D1FDF91CF916A
:100D7000FF90EF90DF90CF900895DF91CF91FF909B
:100D8000EF90DF90CF909ACFCF93DF937EDFEC018F
:100D900088DF8C0F9D1FDF91CF91089576CF1F9232
:100DA0000F920FB60F9211248F939F93AF93BF931F
:100DB0008091C2419091C341A091C441B091C5417D
:100DC0000196A11DB11D8093C2419093C341A09390
:100DD000C441B093C54181E08093260BBF91AF9190
:100DE0009F918F910F900FBE0F901F901895EF93CA
:100DF000FF93E6ECF1E408C0EF93FF93E6ECF1E437
:100E000031C0EF93E0E252C02F932FB72F938F930F
:100E10009F93AF93BF936894CF93DF9320E0C485F3
:100E2000D8E09689DF01A90FB21FA95ABF4F8C9154
:100E300020E42C838A839F5F9F738D8125892913EA
:100E400002C08F7D8D83968BDF91CF910EF082CC87
:100E5000BF91AF919F918F912F912FBF2F91FF91B4
:100E6000EF9118952F932FB72F938F939F93CF9335
:100E7000DF93C485D8E08981988181FD0DC0C38945
:100E800081E08C0F8F732489281731F0CE0FDF2F6C
:100E900020E0D21F9F8B838BDF91CF919F918F9109
:100EA0002F912FBF2F91FF91EF911895FF938F9363
:100EB0008FB78F93F8E08081848187FFFCCF858195
:100EC0008F7B806885838F918FBF8F91FF91EF918A
:100ED00018951F920F920FB60F9211240BB60F9216
:100EE0002F933F934F935F936F937F938F939F9332
:100EF000AF93BF93EF93FF9389E692E4D4DCFF9125
:100F0000EF91BF91AF919F918F917F916F915F9181
:100F10004F913F912F910F900BBE0F900FBE0F90EE
:100F20001F9018951F920F920FB60F9211240BB6B7
:100F30000F922F933F934F935F936F937F938F9372
:100F40009F93AF93BF93EF93FF938BE094E4ABDC5D
:100F5000FF91EF91BF91AF919F918F917F916F9191
:100F60005F914F913F912F910F900BBE0F900FBE4D
:100F70000F901F9018951F920F920FB60F92112489
:100F80008F939F93AF93BF9381E08093C0418093F1
:100F900053018091BC419091BD41A091BE41B0915F
:100FA000BF410196A11DB11D8093BC419093BD41ED
:100FB000A093BE41B093BF41BF91AF919F918F91DC
:100FC0000F900FBE0F901F901895E6ECF1E412827F
:100FD000138288EE93E0A0E0B0E084839583A6833B
:100FE000B7832FE730E42083318320E238E0248781
:100FF000358722EF31E02687378722E0208B118A60
:10100000128AEFEFF3E41282138284839583A6831E
:10101000B78329E930E42083318340E059E04487F5
:101020005587EDE5F2E41282138284839583A683CB
:10103000B7832083318380E299E084879587089580
:10104000CF93DF93CDB7DEB72A97CDBFDEBF88ED54
:1010500021E084BF2093610090E284BF90936800F8
:101060002093030A8EEF8093260A8093270A9BE041
:101070009093000A32E03093E6052093430A809370
:10108000660A8093670A9093400A9093E705E0E030
:10109000FBE027E095E02183848715869083709696
:1010A000E0340BE0F007B9F72FEF3FE02093AA0BF5
:1010B0003093AB0B80E88093820B1092810B2DEF65
:1010C00031E02093AE0B3093AF0B81E18093800B26
:1010D00082E0809302062EE02093050620E620930E
:1010E00003069093000690E49093080691E0909395
:1010F0000A0680930A068091A000887F856080930D
:10110000A0008091A200887F85608093A20027E8DC
:1011100033E120932C0B30932D0B9093250B1092E1
:10112000210B83E08093200B789489E3EFE7F1E4CF
:10113000DF01082F1D920A95E9F7E6E4F1E4DF01EB
:101140001D928A95E9F78091200B80648093200B93
:10115000E0910B44F0910C44918340E052EC61E04B
:1011600070E086EC91E410DD80910D4485FD27C090
:1011700080910B4490910C448115B9E09B0709F0D4
:1011800091C176DB80910D44806280930D44E091A3
:101190000B44F0910C4481E08383858390910D444E
:1011A00095FF0DC096819A3251F0238113829AE205
:1011B000968390819D7F9083238320FD85838AEA97
:1011C00090E4E2DDCE010196FEDC8A8180688A83AC
:1011D000CE010196E2DC64E670E080E090E0DAD8CF
:1011E000CE010196F0DC8A818078998184678A83B8
:1011F000986F9983CE010196D0DC80E180936104E1
:101200006C9A8FB7F894C090C241D090C341E090DF
:10121000C441F090C5418FBF88ED23E830E084BF22
:1012200020937C008091630083FD42C12FB7F89426
:101230008091C2419091C341A091C441B091C541F8
:101240002FBF8C199D09AE09BF09813D9740A105AB
:10125000B10540F182E991E027DD68EE73E080E0BE
:1012600090E098D883E891E0C2DA60917C0070E069
:1012700090E080E042E022DD14DD86E791E0B7DA1D
:101280006091630070E090E080E042E017DD09DDEE
:1012900080E691E0ACDA42E068E070E080E090E067
:1012A0000DDDFFDC2FB7F8948091C2419091C341CE
:1012B000A091C441B091C5412FBF8C199D09AE09C1
:1012C000BF09813A9F40A105B10508F4ABCF89E47D
:1012D00091E0EADC8091B34181608093B3418091D9
:1012E00041018111FCCF1092470181E080935201AE
:1012F00081E58093500189E291E0D6DC8091500035
:10130000897F846080935000809150008160809339
:1013100050008FEA90E438DDC12CD12C7601C394C3
:1013200010E000E08C2D880F80930F441092104441
:101330000E9435018111D4C08BEB90E42FDD2FE0AA
:101340002C1518F08AED90E429DD40E1C701B601C3
:10135000B5DC8CED90E418DD0F5F1F4F8FEFC81ADE
:10136000D80AE80AF80A9FE7C916D104E104F10493
:10137000C9F68CEF90E4012B11F082E191E404DDD9
:10138000EFE7F1E480E081938F5F8933E1F724EBAD
:1013900031E4AFE7B1E44FEF5FEFBA018D91E82F91
:1013A000E427EF7004E0E09FF0011124EE54FE4FBB
:1013B000C590D590E590F490E4E0769567955795C3
:1013C0004795EA95D1F74C255D256E257F25E82FB9
:1013D000E295EF70E427EF7014E0E19FF001112433
:1013E000EE54FE4FC590D590E590F490F4E07695DC
:1013F000679557954795FA95D1F74C255D256E254C
:101400007F252A173B0709F0C9CF40955095609575
:1014100070954093B4415093B5416093B641709339
:10142000B74180910D4486FD18C080910B44909186
:101430000C44811529E0920709F064C019DA809103
:101440000D44806480930D44E0910B44F0910C4472
:1014500084E88487168681EE81878DE595E0809308
:10146000194490931A4484E995E08093174490932B
:1014700018448091C141882329F088E191E48EDCF1
:101480001092C1418091C041811142C00E948101EE
:10149000882309F43DC061E070E080E090E00E94A4
:1014A000CA01F0CF8032994009F06CCED4D96ACE0F
:1014B0008091B3418E7F8093B34186E091E0F4DB6D
:1014C000809141018111FCCF82E08093470181E04E
:1014D0008093520181E58093500188EE90E00DCF1A
:1014E000843009F03BCF80EE90E458DC3FE03C15BF
:1014F00018F08AED90E452DC40E1C701B601DEDB72
:10150000D0DB2CCF8032994009F099CFA4D997CF66
:101510008091C041811103C086EC91E486D980910D
:10152000C041882309F4F4C08091C141882329F087
:1015300088E191E433DC1092C1411092C041F894EB
:101540008091BC419091BD41A091BE41B091BF41FD
:1015500078944091B8415091B9416091BA417091ED
:10156000BB418C019D01041B150B260B370BB901E8
:10157000A801403551056105710508F47ACF8093C3
:10158000B8419093B941A093BA41B093BB4189DB74
:101590009FE7C92E91E4D92EF12CE12CD6011D91A3
:1015A0006D01612F62956F7060636A330CF0695F43
:1015B00086EC91E4D0D8612F6F7060636A3308F0D5
:1015C000695F86EC91E4C7D8BFEFEB1AFB0AE9E349
:1015D000EE16F10409F0AAC064DB0FE711E4412C18
:1015E000512C320143948AE191E4D8DB4AE050E087
:1015F000C301B2019FDB8DE191E4D0DBD8011496E9
:101600006D917C9190E080E04AE058DB82E291E4C9
:10161000C5DBF80166817781072E000C880B990BDA
:101620004AE050E087DB87E291E4B8DBD801169608
:101630008D919C91E0E9F1E08E9FB0018F9F700D3C
:101640009E9F700D1124072E000C880B990B4AE009
:1016500050E070DB18011B821C821D821E828CE20E
:1016600091E49CDB4AE050E06B817C818D819E811E
:1016700061DB8AE3D6D8D10118966D917D918D9169
:101680009C911B974AE050E055DB8FE2CAD8F101EC
:101690006485758590E080E04AE010DB8DE3C1D879
:1016A000D10118966D917D918D919C911B97D0D110
:1016B0002FE933E14BEA56E435D16B017C014B0154
:1016C0005C01AC019B01DBD2882309F440C081E3BB
:1016D00091E4DBDA8DE391E461DB96E0290E311CC5
:1016E0008B819C81AD81BE810197A105B10531F54A
:1016F000D8DA9FEF491A590A690A790A005F1F4F21
:10170000A4E04A1651046104710409F06CCFB1CE13
:101710000E948101811108CFF8940E9481018111FA
:1017200003C078948895FBCE7894F9CEC7018F706A
:101730009927892B09F032CFB4DA30CF81E090E0DD
:10174000A0E0B0E08B839C83AD83BE8388CFD701BC
:10175000C601BF778F839887A987BA872FEF3FEF9E
:101760004FE75FE7BC01CD018AD281110EC02FEF98
:101770003FEF4FE75FE76F81788589859A85CED007
:1017800018161CF485E391E4A4CF2FEF3FEF4FE749
:101790005FE4C701B6010CD218161CF489E391E48A
:1017A00098CF2FEF3FEF4FE75FECC701B601B6D000
:1017B00087FDF4CF20E030E0A901C701B601AED02B
:1017C00087FF08C08DE22DD846015701B7FAB094C3
:1017D000B7F8B0942AE037ED43EA5BE3C501B40102
:1017E00039D04B015C0106D16B017C012FD19B01EB
:1017F000AC01C501B4012DD04B015C014AE0C70129
:10180000B6015CDA89EB90E440DA20E030E040E2B7
:1018100051E4C501B401D0D14B015C01EBD06B01A7
:10182000F12CE12C4AE0C701B60148DAC701B60144
:101830000DD19B01AC01C501B4010BD020E030E01B
:1018400040E251E4B9D1D6D090E080E04AE036DA07
:1018500041CF5058BB27AA270ED070C161D130F0BC
:1018600066D120F031F49F3F11F41EF456C10EF4FE
:10187000E095E7FB4CC1E92F72D180F3BA176207FC
:1018800073078407950718F071F49EF58AC10EF46A
:10189000E0950B2EBA2FA02D0B01B90190010C0180
:1018A000CA01A0011124FF27591B99F0593F50F498
:1018B000503E68F11A16F040A22F232F342F4427F0
:1018C000585FF3CF469537952795A795F0405395E8
:1018D000C9F77EF41F16BA0B620B730B840BBAF0B8
:1018E0009150A1F0FF0FBB1F661F771F881FC2F723
:1018F0000EC0BA0F621F731F841F48F48795779537
:101900006795B795F7959E3F08F0B3CF9395880FED
:1019100008F09927EE0F979587950895D4D008F48D
:1019200081E008950CD00AC102D140F0F9D030F026
:1019300021F45F3F19F0EBC0511134C1EEC00FD15B
:1019400098F39923C9F35523B1F3951B550BBB2786
:10195000AA2762177307840738F09F5F5F4F220F33
:10196000331F441FAA1FA9F333D00E2E3AF0E0E82C
:1019700030D091505040E695001CCAF729D0FE2F78
:1019800027D0660F771F881FBB1F2617370748070A
:10199000AB07B0E809F0BB0B802DBF01FF279358C0
:1019A0005F4F2AF09E3F510568F0B1C0FBC05F3F1A
:1019B000ECF3983EDCF3869577956795B795F795A8
:1019C0009F5FC9F7880F911D9695879597F90895A0
:1019D000E1E0660F771F881FBB1F6217730784073C
:1019E000BA0720F0621B730B840BBA0BEE1F88F74B
:1019F000E0950895BCD088F09F5790F0B92F9927B3
:101A0000B751A0F0D1F0660F771F881F991F1AF009
:101A1000BA95C9F712C0B13081F0C3D0B1E00895D2
:101A2000C0C0672F782F8827B85F39F0B93FCCF353
:101A3000869577956795B395D9F73EF490958095FF
:101A4000709561957F4F8F4F9F4F0895E89409C01F
:101A500097FB3EF490958095709561957F4F8F4FE1
:101A60009F4F9923A9F0F92F96E9BB279395F695F7
:101A7000879577956795B795F111F8CFFAF4BB0F75
:101A800011F460FF1BC06F5F7F4F8F4F9F4F16C0D9
:101A9000882311F096E911C0772321F09EE8872F63
:101AA000762F05C0662371F096E8862F70E060E01F
:101AB0002AF09A95660F771F881FDAF7880F969598
:101AC000879597F90895990F0008550FAA0BE0E83C
:101AD000FEEF16161706E807F907C0F012161306F0
:101AE000E407F50798F0621B730B840B950B39F430
:101AF0000A2661F0232B242B252B21F408950A2696
:101B000009F4A140A6958FEF811D811D089597F9D5
:101B10009F6780E870E060E008959FEF80EC089593
:101B200000240A94161617061806090608950024BC
:101B30000A9412161306140605060895092E039436
:101B4000000C11F4882352F0BB0F40F4BF2B11F4AA
:101B500060FF04C06F5F7F4F8F4F9F4F089557FD09
:101B60009058440F551F59F05F3F71F04795880F0B
:101B700097FB991F61F09F3F79F0879508951216A2
:101B800013061406551FF2CF4695F1DF08C016164E
:101B900017061806991FF1CF8695710561050894FF
:101BA0000895E894BB2766277727CB0197F9089516
:101BB0008ADF08F48FEF08950BD0C0CFB1DF28F093
:101BC000B6DF18F0952309F0A2CFA7CF1124EACFF2
:101BD000C6DFA0F3959FD1F3950F50E0551F629F8C
:101BE000F001729FBB27F00DB11D639FAA27F00D76
:101BF000B11DAA1F649F6627B00DA11D661F829F9D
:101C00002227B00DA11D621F739FB00DA11D621F81
:101C1000839FA00D611D221F749F3327A00D611D9E
:101C2000231F849F600D211D822F762F6A2F112480
:101C30009F5750408AF0E1F088234AF0EE0FFF1FD3
:101C4000BB1F661F771F881F91505040A9F79E3F0A
:101C5000510570F05CCFA6CF5F3FECF3983EDCF30C
:101C6000869577956795B795F795E7959F5FC1F747
:101C7000FE2B880F911D9695879597F9089523DF80
:101C8000880B990B0895A1E21A2EAA1BBB1BFD011C
:101C90000DC0AA1FBB1FEE1FFF1FA217B307E4074B
:101CA000F50720F0A21BB30BE40BF50B661F771FA3
:101CB000881F991F1A9469F7609570958095909583
:101CC0009B01AC01BD01CF01089512D0A59F900DDD
:101CD000B49F900DA49F800D911D11240895EE0FC7
:101CE000FF1F0024001C0BBE0790F691E02D099405
:101CF000A29FB001B39FC001A39F700D811D11244D
:101D0000911DB29F700D811D1124911D0895F894AD
:021D1000FFCF03
:101D12000102040810204080010204081020010280
:101D220004081020408001020408102040800102B3
:101D32000408010204081020400000000000000016
:101D42000001010101010102020202020202020378
:101D52000303030303030304040404050505050543
:101D6200050500010203040506070001020304053C
:101D72000001020304050607000102030405060729
:101D8200000102030001020304050600000000AB8B
:101D920003FA0127021504580236024A02C4057BDF
:101DA2000264022904000000003C050E055A05BA2F
:101DB200040005E104C7040D0A00626F6F7400534A
:101DC20063616E6E696E672E2E2E00493243206467
:101DD200657669636520666F756E64206174206143
:101DE2006464726573732030780030002020210013
:101DF200556E6B6E6F776E206572726F72206174B2
:101E02002061646472657373203078004E6F2049DC
:101E12003243206465766963657320666F756E640C
:101E22000A00646F6E650A002B0063680020627608
:101E32003A002073763A002075613A0020616363AC
:101E4200006E616E00696E66006F7666006D616895
:021E520000008E
:00000001FF
