:10000000E2C0000013C1000011C100000FC10000D8
:100010000DC100000BC1000072C7000007C1000045
:1000200005C1000003C1000001C10000FFC00000C5
:10003000FDC00000FBC00000F9C00000F7C00000D8
:10004000F5C00000F3C000009CC60000EFC0000037
:10005000EDC0000029C6000022C600002AC600002C
:10006000E5C00000E3C00000E1C00000DFC0000008
:10007000DDC00000DBC00000D9C00000E8C5000002
:10008000D5C00000D3C00000D1C00000CFC0000028
:10009000CDC00000CBC00000C9C00000C7C0000038
:1000A000C5C00000C3C0000007C70000BFC00000FB
:1000B00052544320696E697469616C697A65642081
:1000C0007573696E6720584F534333324B00584F56
:1000D000534333324B20737461727465642E20492C
:1000E0006E697469616C697A696E67205254432E37
:1000F0000052544320696E697469616C697A656461
:10010000207573696E67204F5343554C5033324B03
:1001100000584F534333324B2073746172747570BF
:10012000204641494C454400434C4B4354524C5F9C
:10013000584F534333324B535F626D3A20004D4367
:100140004C4B5354415455533A2000584F5343336A
:10015000324B4354524C413A200057616974696EE6
:100160006720666F7220584F534333324B20746FB1
:100170002073746172742E2E2E0000000000641033
:10018000B71DC8206E3BAC30D9269041DC76F451C7
:100190006B6B5861B24D3C7105502083B8ED4493B0
:1001A0000FF0E8A3D6D68CB361CBB0C2649BD4D297
:1001B000D38678E20AA01CF2BDBD0000020104064D
:1001C00003000300A90711241FBECFEFCDBFDFE757
:1001D000DEBF8091400080934000811105C098ED02
:1001E00021E094BF209341008CBB11E6A0E0B0E673
:1001F000E2E3FCE102C005900D92A631B107D9F708
:1002000023E6A6E1B1E601C01D92A23DB207E1F7E7
:1002100010E0C3EED0E004C02197FE010E94020E60
:10022000C23ED107C9F7C2D60C94170EE9CEE091B1
:100230003C62F0913D628581837009F442C0838104
:1002400080FF3FC0509140625E7F30E020E090E050
:100250004581842F83702F5F3F4F213167E236073E
:1002600040F0823041F1813041F184E093E09483A9
:10027000089543FF04C088E0858382E1F7CF813091
:1002800021F4578330E020E0E3CF823009F746FFC6
:10029000DFCF44FF04C0992349F383E0E7CF809187
:1002A0004162981760F4A92FB0E0A45BBD498C911E
:1002B00080879F5FE7CF85E0D9CF81E1D7CF80E00E
:1002C000D5CF80E10895E0914A62F0914B6230977A
:1002D00031F080914662882311F090E009940895EE
:1002E0009FB7F894E0912A0BF0912B0B8091260B8D
:1002F00020919561309196614091976150919861FC
:100300009FBF80FF08C0E43981E1F80720F42F5F28
:100310003F4F4F4F5F4F0F01169407941694079469
:10032000F0011694079416940794E019F1091694B5
:1003300007940694102C169416940118169416948B
:10034000010C1124E00DF11DA8EEB3E00E94F80DA0
:100350006E0F7F1F811D911D08958F929F92AF9206
:10036000BF92CF92DF92EF92FF924B015C01B8DF18
:100370006B017C01B5DF6C197D098E099F09683E10
:10038000734081059105B0F321E0821A9108A1081C
:10039000B10888EEC80E83E0D81EE11CF11C811460
:1003A0009104A104B10431F7FF90EF90DF90CF905A
:1003B000BF90AF909F908F900895AF92BF92CF92D1
:1003C000DF92EF92FF920F931F93CF93DF936C0115
:1003D0007B018B01040F151FEB015E01AE18BF08F6
:1003E000C017D10759F06991D601ED91FC910190A8
:1003F000F081E02DC6010995892B79F7C501DF91C0
:10040000CF911F910F91FF90EF90DF90CF90BF9011
:10041000AF900895FC0155894689252F30E0842F3F
:1004200090E0821B930B541710F0CF96089501971C
:100430000895FC0193898489981761F0A489AE0F0F
:10044000BF2FB11D57968C9194899F5F9F73948B9A
:1004500090E008958FEF9FEF0895FC0193898489C0
:10046000981731F08489E80FF11D878990E008958D
:100470008FEF9FEF0895FC0193892489892F90E0E5
:10048000805C9F4F821B91098F7399270895CF93AA
:10049000DF93EC01E881F9810680F781E02D099571
:1004A000EC85FD85868116828581158280E48483B2
:1004B0008C898B8B1A8ADF91CF9108958F929F92AE
:1004C000AF92BF92FF920F931F93CF93DF938C0154
:1004D0004A015B01D22FC32FDC0152968C915297B7
:1004E00080FF07C0ED91FC910288F389E02DC801DF
:1004F0000995D11101C0D3E0FD2EE894F2F8DC2F6C
:10050000D095D07CB9E68B16B9E89B06B9E0AB066E
:10051000B10428F0D260B694A7949794879460E0D1
:100520007AE582E692E0A50194010E94D60DC90108
:100530002034310510F480E490E03C2F3B72D7FD6D
:1005400030684D2F487C30FD41605FB7F894D8018A
:100550001C96ED91FC911682F7828087918735FF7A
:100560008BC04F7781E084878FEF85873F7D358310
:10057000D683F8012189C08986859785FC0133E0FF
:10058000239FE00DF11D1124659174912C1708F043
:1005900059C0272F46FF72C07B3188F430E0F90143
:1005A000E050F04AA081AF3F51F0255E3F49F9018C
:1005B000308120E2329FF0011124FC5FA18347FFCC
:1005C0002AC021E0270F2B3130F530E0F901E0504F
:1005D000F04AD081DF3FF9F0F901E55EFF49A081E3
:1005E000F0E2AF9FD0011124BC5F2A5C3F49F901C2
:1005F0001081F0E0E0E0183030F49D01205F3F4FC3
:10060000F901E10FF11D3FB7F8941296DC932081B8
:10061000286020833FBF40FF15C023E0270F2B3108
:1006200088F430E0F901E050F04A40814F3F51F04A
:10063000255E3F49D901EC91B0E2EB9FF001112416
:10064000FC5F4183FC0123E0C29FE00DF11D1124FA
:100650003296E4918091E205E095E823E62BE09361
:10066000E2055FBFDF91CF911F910F91FF90BF9087
:10067000AF909F908F900895148678CF342F307567
:1006800009F49DCF7B3108F09ACF30E0F901E050BA
:10069000F04AD081DF3F09F492CFF901E55EFF49CE
:1006A000A081E0E2AE9FD0011124BC5F2A5C3F49EB
:1006B000F9011081F0E0E0E0183030F49D01205F96
:1006C0003F4FF901E10FF11D3FB7F8941296DC930B
:1006D0002081286020833FBF72CFFC010FB607FE48
:1006E00004C0809111018823A1F0A485B5851496DA
:1006F0008C91149785FF0DC095898689981739F0DC
:1007000015968C9115978F7D15968C930895E89486
:10071000DBC208950F931F93CF93DF93EC018A8977
:10072000982F91609A8B2D899E8929130AC0EC8598
:10073000FD85948195FF05C081FD0DC080E4848313
:1007400012C0062F1D891F5F1F738E89811315C06C
:10075000CE01C3DFFACF85818F77806490E49483E4
:10076000EC85FD858583EC85FD85628381E090E0E5
:10077000DF91CF911F910F910895ED89EC0FFD2F1F
:10078000F11DE95AFF4F00831D8BEC85FD858A8999
:1007900081FF09C085818F77806690E49483EC8522
:1007A000FD858583E3CF85818062FBCF0F931F9307
:1007B000CF93DF938C01D0E0C0E0F801EC0FFD1F78
:1007C0006491662339F089E991E6A4DF892B11F061
:1007D0002196F3CFCE01DF91CF911F910F91089514
:1007E000682F89E991E696CFCF93DF93EC018A8950
:1007F00080FF0BC0EC85FD85858185FD03C084816C
:1008000086FD03C0CE0169DFF5CFDF91CF9108955A
:1008100081E008958091E5058370823021F48CE0B9
:100820008093460408958CE0809306040895DC01CB
:100830001C96ED91FC91938181851382118693839F
:1008400091E0958381870895FC01868584FF0DC022
:10085000CF01805E9E4F2689E789E21760F4E80F9A
:10086000F92FF11D808190E00895CF0182569F4FAE
:100870002289E389F2CF8FEF9FEF0895FC018685EF
:10088000DF0184FF10C057969F01205E3E4F86898E
:100890009789981778F4290F311DF90180819F5F9E
:1008A0009C9390E0089553969F0122563F4F828972
:1008B0009389EFCF8FEF9FEF0895FC01868584FF2A
:1008C00007C096898789292F281B330BC9010895F2
:1008D00092898389F8CFCF92DF92EF92FF920F93A4
:1008E0001F93CF936C014338510510F042E850E05C
:1008F000C42F7B0110E000E00C1780F4D7016D914C
:100900007D01D601ED91FC910190F081E02DC601B1
:10091000099598012F5F3F4F892B49F4C801CF916A
:100920001F910F91FF90EF90DF90CF900895890174
:10093000E3CFFC018685DF0184FF11C05696CF010D
:10094000805E9E4FE689E23878F4E80FF92FF11DBA
:1009500060838C918F5F8C9381E090E00895519635
:10096000CF014C96E189EFCF90E080E0089590E0D0
:1009700080E008950F931F93CF93DF938C01109223
:100980003F6280E392E67ADFC82F80E392E676DF6B
:1009900020E0822B9C2B8093186190931961E801D1
:1009A000C230D105B1F080E392E668DF8091186132
:1009B0009091196101968933910530F48093186103
:1009C000909319612197ECCF1092186110921961E0
:1009D000F9CFDF91CF911F910F9108950F931F933E
:1009E000CF93DF93C0913F6210923F628091186174
:1009F00090911961C80FD92FD11DC0931861D09360
:100A000019618E01005E1F4F0933110510F009E3D3
:100A100010E0CD5ADE49CE018355914680179107EB
:100A200028F4699180E392E684DFF5CFDF91CF91DE
:100A30001F910F910895DC01ED91FC910088F189DF
:100A4000E02D23E030E00994CF93DF93EC01E0E365
:100A5000F2E680E8808B118A60E0CF016ADF69816D
:100A600080E392E666DF688180E392E662DFDF91F1
:100A7000CF91DDCB1F93CF93DF93EC0110E8109360
:100A800040621092416260E080E392E652DFCFDB89
:100A90001093406210924362E0913C62F0913D629B
:100AA00085818370B1F081E8878330E020E090E0B9
:100AB00080E062E04581542F53702F5F3F4F21311A
:100AC00077E2370720F443FF1AC098E095838093BC
:100AD000426280E392E6D2DE1882898380E392E666
:100AE000CDDE28813981822B932B88839983DF91F6
:100AF000CF911F91089530E020E097E0DBCF99235C
:100B0000A1F0523021F7948347FF12C08238A8F732
:100B10002085A82FB0E0A253BD492C938F5F813070
:100B200051F7648330E020E0C5CF523019F6ECCFA6
:100B300046FFC0CF93E0BECFFC0101900020E9F753
:100B40003197AF01481B590BBC0189E991E635CCBF
:100B50008DE790E6F1CFCF93DF9328DEEC01F8DF4D
:100B60008C0F9D1FDF91CF9108958F929F92AF922E
:100B7000BF920F931F93CF93DF93CDB7DEB7A197AB
:100B8000CDBFDEBF19A2423008F44AE08E010F5DEE
:100B90001F4F842E912CB12CA12CA50194010E94F1
:100BA000D60DE62FB901CA01EA30D4F4E05DD801D0
:100BB000EE938D01232B242B252B79F790E080E0F9
:100BC000109711F0CD01B8DFA196CDBFDEBFDF9148
:100BD000CF911F910F91BF90AF909F908F900895EC
:100BE000E95CE5CFCF92DF92EF92FF92CF93DF9354
:100BF0004A305105D1F44AE097FF17C06B017C01E0
:100C00008DE2EEDDEC0166277727CB016C197D09BB
:100C10008E099F094AE0A9DF8C0F9D1FDF91CF91BC
:100C2000FF90EF90DF90CF900895DF91CF91FF90EC
:100C3000EF90DF90CF9099CFCF93DF937DDFEC01E2
:100C400087DF8C0F9D1FDF91CF91089575CF1F9285
:100C50000F920FB60F9211248F939F93AF93BF9370
:100C60008091956190919661A0919761B091986102
:100C70000196A11DB11D8093956190939661A093FB
:100C80009761B093986181E08093260BBF91AF91FB
:100C90009F918F910F900FBE0F901F901895EF931B
:100CA000FF93E9E9F1E608C0EF93FF93E9E9F1E684
:100CB00031C0EF93E0E052C02F932FB72F938F9363
:100CC0009F93AF93BF936894CF93DF9320E0C48545
:100CD000D8E09689DF01A90FB21FA95ABF4F8C91A6
:100CE00020E42C838A839F5F9F738D81258929133C
:100CF00002C08F7D8D83968BDF91CF910EF009CD51
:100D0000BF91AF919F918F912F912FBF2F91FF9105
:100D1000EF9118952F932FB72F938F939F93CF9386
:100D2000DF93C485D8E08981988181FD0DC0C38996
:100D300081E08C0F8F732489281731F0CE0FDF2FBD
:100D400020E0D21F9F8B838BDF91CF919F918F915A
:100D50002F912FBF2F91FF91EF911895FF938F93B4
:100D60008FB78F93F8E08081848187FFFCCF8581E6
:100D70008F7B806885838F918FBF8F91FF91EF91DB
:100D800018951F920F920FB60F9211242F933F9335
:100D90004F935F936F937F938F939F93AF93BF9383
:100DA000EF93FF93E0913C62F0913D6293858091D7
:100DB0003E62806180933E6296FF39C090FF1CC006
:100DC00085858093456291FF11C07DDA109246625D
:100DD00010924762E0914862F0914962309709F0C1
:100DE0000995E0913C62F0913D6204C01092466228
:100DF0001092476283E047C080E4838764DA1092F0
:100E0000466280913E628F7E80933E62FF91EF91B9
:100E1000BF91AF919F918F917F916F915F914F9112
:100E20003F912F910F900FBE0F901F90189597FF35
:100E3000E8CF91FF2AC093FD04C094FF08C087FF4C
:100E400006C08F7780933E6282E08287D8CF806829
:100E500080933E6280913F628F5F80933F62A0915A
:100E6000476280914662A81768F4B0E0A05BBC4975
:100E70008C91858783E08287809147628F5F809322
:100E80004762BFCF82E08287BCCF95858091466262
:100E9000823858F4E82FF0E0E05BFC4990838091C1
:100EA00046628F5F809346629CCF86E08287109275
:100EB000466210924762A5CF1F920F920FB60F9213
:100EC00011242F933F934F935F936F937F938F934F
:100ED0009F93AF93BF93EF93FF9353DFFF91EF91F6
:100EE000BF91AF919F918F917F916F915F914F9142
:100EF0003F912F910F900FBE0F901F9018951F924A
:100F00000F920FB60F9211248F939F93AF93BF93BD
:100F100081E08093946180935301809190619091DE
:100F20009161A0919261B09193610196A11DB11D53
:100F30008093906190939161A0939261B09393613B
:100F4000BF91AF919F918F910F900FBE0F901F9007
:100F50001895E9E9F1E61282138288EE93E0A0E0A9
:100F6000B0E084839583A683B78325E530E62083AC
:100F7000318320E038E0248735872AEB31E026876B
:100F8000378722E0208B118A128AE0E3F2E6128290
:100F9000138284839583A683B7838FE690E680834C
:100FA000918380E099E0848795870895CF93DF93BC
:100FB000CDB7DEB72A97CDBFDEBF88ED91E084BF05
:100FC0009093610020E284BF209368009093030A0D
:100FD0008EEF8093260A8093270A2BE02093000A45
:100FE00033E03093E6051092E70547E04093010BAC
:100FF00080930C0B10920D0B25E02093000B409377
:10100000110B80931C0B10921D0B2093100B4FEFB4
:101010005FE04093AA0B5093AB0B80E88093820B68
:101020001092810B4DEF51E04093AE0B5093AF0BFC
:1010300081E18093800B82E0809302068EE08093B2
:10104000050680E680930306209300068091B00099
:10105000887F85608093B0008091B200887F856032
:101060008093B20047E853E140932C0B50932D0B33
:101070009093250B1092210B3093200B789489E3E9
:10108000E3E5F1E6DF01082F1D920A95E9F7EAE1B1
:10109000F1E6DF011D928A95E9F78091200B8064CB
:1010A0008093200BE0913C62F0913D62918340E09F
:1010B00052EC61E070E089E991E6BDDC80913E622E
:1010C00085FD27C080913C6290913D628115B9E019
:1010D0009B0709F08AC19EDB80913E62806280930B
:1010E0003E62E0913C62F0913D6281E083838583C2
:1010F00090913E6295FF0DC096819A3251F0238106
:1011000013829AE2968390819D7F9083238320FDB2
:10111000858380E890E690DDCE010196ABDC8A8184
:1011200080688A83CE0101968FDC64E670E080E0FF
:1011300090E013D9CE0101969DDC8A818078998157
:1011400084678A83986F9983CE0101967DDC80E164
:10115000809361046C9A8FB7F894C0909561D09099
:101160009661E0909761F09098618FBF88ED23E8D9
:1011700030E084BF20937C008091650083FD3DC1F9
:101180002FB7F8948091956190919661A0919761A5
:10119000B09198612FBF8C199D09AE09BF09813D9F
:1011A0009740A105B10540F18AE591E0D4DC68EEF5
:1011B00073E080E090E0D1D88BE491E0F7DA6091C1
:1011C0007C0070E090E080E042E0CFDCC1DC8EE3A8
:1011D00091E0ECDA6091650070E090E080E042E040
:1011E000C4DCB6DC88E291E0E1DA42E068E070E07D
:1011F00080E090E0BADCACDC2FB7F8948091956188
:1012000090919661A0919761B09198612FBF8C19D0
:101210009D09AE09BF09813A9F40A105B10508F4B7
:10122000ABCF81E191E097DC809187618160809311
:101230008761809141018111FCCF1092470181E0CB
:101240008093520181E58093500181EF90E083DC2F
:1012500080915000897F846080935000809150007D
:1012600081608093500085E890E6E6DCC12CD12CAB
:101270007601C39410E000E08C2D880F80934062CB
:10128000109241620E9417018111CFC081E990E65E
:10129000DDDC2FE02C1518F080EB90E6D7DC40E188
:1012A000C701B60162DC82EB90E6C6DC0F5F1F4F20
:1012B0008FEFC81AD80AE80AF80A9FE7C916D104BE
:1012C000E104F104C9F682ED90E6012B11F088EEFD
:1012D00090E6B2DCE3E5F1E680E081938F5F89334D
:1012E000E1F728E831E6A3E5B1E64FEF5FEFBA0199
:1012F0008D91E82FE427EF7004E0E09FF0011124C6
:10130000E658FE4FC590D590E590F490E4E07695D0
:10131000679557954795EA95D1F74C255D256E253C
:101320007F25E82FE295EF70E427EF7014E0E19F4E
:10133000F0011124E658FE4FC590D590E590F49049
:10134000F4E07695679557954795FA95D1F74C2532
:101350005D256E257F252A173B0709F0C9CF4095EB
:101360005095609570954093886150938961609322
:101370008A6170938B6180913E6286FD18C0809176
:101380003C6290913D62811529E0920709F05FC0AF
:1013900041DA80913E62806480933E62E0913C62DB
:1013A000F0913D6284E88487168681EE81878AEB1E
:1013B00094E080934A6290934B628EEE94E0809327
:1013C00048629093496280919461811148C0E09194
:1013D0003C62F0913D62838580FF41C061E070E036
:1013E00080E090E00E94AD01EECF8032994009F09C
:1013F00073CE8CE08093A6046FCE809187618E7F40
:10140000809387618EEC90E0A6DB80914101811191
:10141000FCCF82E08093470181E08093520181E517
:101420008093500180EB90E012CF843009F040CFE0
:1014300086EB90E60BDC3FE03C1518F080EB90E685
:1014400005DC40E1C701B60190DB82DB31CF8032A1
:10145000994009F09ECF8CE08093A6049ACF8091AA
:10146000946181110CC0E0913C62F0913D628385F2
:1014700080FD05C089E991E6B7D98895F0CF109233
:101480009461F8948091906190919161A0919261A2
:10149000B0919361789440918C6150918D6160918D
:1014A0008E6170918F618C019D01041B150B260BC1
:1014B000370BB901A801403551056105710508F4E4
:1014C00082CF80938C6190938D61A0938E61B09355
:1014D0008F613EDB93E5C92E91E6D92EF12CE12CEC
:1014E000D6011D916D01612F62956F7060636A3343
:1014F0000CF0695F89E991E60DD9612F6F70606327
:101500006A3308F0695F89E991E604D9BFEFEB1A05
:10151000FB0AE9E3EE16F10409F09BC019DB03E5D1
:1015200011E6412C512C320143948EEE90E68EDB75
:101530004AE050E0C301B20155DB81EF90E686DB63
:10154000D80114966D917C9190E080E04AE00DDB2B
:1015500086EF90E67BDBF80166817781072E000C31
:10156000880B990B4AE050E03DDB8BEF90E66EDB99
:10157000D80116968D919C91E0E9F1E08E9FB00123
:101580008F9F700D9E9F700D1124072E000C880BED
:10159000990B4AE050E026DB18011B821C821D8259
:1015A0001E8280E091E652DB4AE050E06B817C8154
:1015B0008D819E8117DB8AE313D9D10118966D9135
:1015C0007D918D919C911B974AE050E00BDB8FE25F
:1015D00007D9F1016485758590E080E04AE0C5DABD
:1015E0008DE3FED8D10118966D917D918D919C91DE
:1015F0001B97C1D12FE933E14BEA56E426D16B01A9
:101600007C014B015C01AC019B01CCD2882391F1A0
:1016100085E091E691DA81E191E618DB96E0290E0A
:10162000311C8B819C81AD81BE810197A105B105E3
:10163000C1F48EDA9FEF491A590A690A790A005FE4
:101640001F4FA4E04A1651046104710409F06DCFE4
:10165000BACEC7018F709927892B09F041CF78DA6C
:101660003FCF81E090E0A0E0B0E08B839C83AD832E
:10167000BE8397CFD701C601BF778F839887A9878D
:10168000BA872FEF3FEF4FE75FE7BC01CD018AD26A
:1016900081110EC02FEF3FEF4FE75FE76F81788535
:1016A00089859A85CED018161CF489E091E6B2CFD0
:1016B0002FEF3FEF4FE75FE4C701B6010CD21816DA
:1016C0001CF48DE091E6A6CF2FEF3FEF4FE75FECE4
:1016D000C701B601B6D087FDF4CF20E030E0A90104
:1016E000C701B601AED087FF08C08DE279D84601A8
:1016F0005701B7FAB094B7F8B0942AE037ED43EA4F
:101700005BE3C501B40139D04B015C0106D16B012B
:101710007C012FD19B01AC01C501B4012DD04B013F
:101720005C014AE0C701B60120DA8FE890E604DAEE
:1017300020E030E040E251E4C501B401D0D14B01DA
:101740005C01EBD06B01F12CE12C4AE0C701B60142
:101750000CDAC701B6010DD19B01AC01C501B40182
:101760000BD020E030E040E251E4B9D1D6D090E097
:1017700080E04AE0FAD94FCF5058BB27AA270ED0B5
:1017800070C161D130F066D120F031F49F3F11F487
:101790001EF456C10EF4E095E7FB4CC1E92F72D15F
:1017A00080F3BA17620773078407950718F071F47E
:1017B0009EF58AC10EF4E0950B2EBA2FA02D0B01D9
:1017C000B90190010C01CA01A0011124FF27591B86
:1017D00099F0593F50F4503E68F11A16F040A22F8C
:1017E000232F342F4427585FF3CF469537952795FD
:1017F000A795F0405395C9F77EF41F16BA0B620BFC
:10180000730B840BBAF09150A1F0FF0FBB1F661F42
:10181000771F881FC2F70EC0BA0F621F731F841F85
:1018200048F4879577956795B795F7959E3F08F0AB
:10183000B3CF9395880F08F09927EE0F979587956A
:101840000895D4D008F481E008950CD00AC102D1E3
:1018500040F0F9D030F021F45F3F19F0EBC05111A6
:1018600034C1EEC00FD198F39923C9F35523B1F3D6
:10187000951B550BBB27AA2762177307840738F0FF
:101880009F5F5F4F220F331F441FAA1FA9F333D05E
:101890000E2E3AF0E0E830D091505040E695001C12
:1018A000CAF729D0FE2F27D0660F771F881FBB1FCE
:1018B000261737074807AB07B0E809F0BB0B802DA8
:1018C000BF01FF2793585F4F2AF09E3F510568F0F4
:1018D000B1C0FBC05F3FECF3983EDCF38695779593
:1018E0006795B795F7959F5FC9F7880F911D9695F6
:1018F000879597F90895E1E0660F771F881FBB1F52
:10190000621773078407BA0720F0621B730B840BFE
:10191000BA0BEE1F88F7E0950895BCD088F09F576A
:1019200090F0B92F9927B751A0F0D1F0660F771F2B
:10193000881F991F1AF0BA95C9F712C0B13081F00B
:10194000C3D0B1E00895C0C0672F782F8827B85F53
:1019500039F0B93FCCF3869577956795B395D9F76C
:101960003EF490958095709561957F4F8F4F9F4F76
:101970000895E89409C097FB3EF490958095709582
:1019800061957F4F8F4F9F4F9923A9F0F92F96E9CB
:10199000BB279395F695879577956795B795F11140
:1019A000F8CFFAF4BB0F11F460FF1BC06F5F7F4FDD
:1019B0008F4F9F4F16C0882311F096E911C07723EF
:1019C00021F09EE8872F762F05C0662371F096E8F8
:1019D000862F70E060E02AF09A95660F771F881FC7
:1019E000DAF7880F9695879597F90895990F00086B
:1019F000550FAA0BE0E8FEEF16161706E807F907E1
:101A0000C0F012161306E407F50798F0621B730B7B
:101A1000840B950B39F40A2661F0232B242B252BFC
:101A200021F408950A2609F4A140A6958FEF811D9F
:101A3000811D089597F99F6780E870E060E0089540
:101A40009FEF80EC089500240A94161617061806D6
:101A50000906089500240A941216130614060506B2
:101A60000895092E0394000C11F4882352F0BB0F43
:101A700040F4BF2B11F460FF04C06F5F7F4F8F4FA6
:101A80009F4F089557FD9058440F551F59F05F3FE1
:101A900071F04795880F97FB991F61F09F3F79F090
:101AA00087950895121613061406551FF2CF469512
:101AB000F1DF08C0161617061806991FF1CF869594
:101AC0007105610508940895E894BB276627772778
:101AD000CB0197F908958ADF08F48FEF08950BD0B2
:101AE000C0CFB1DF28F0B6DF18F0952309F0A2CF00
:101AF000A7CF1124EACFC6DFA0F3959FD1F3950FAE
:101B000050E0551F629FF001729FBB27F00DB11D81
:101B1000639FAA27F00DB11DAA1F649F6627B00D11
:101B2000A11D661F829F2227B00DA11D621F739FFA
:101B3000B00DA11D621F839FA00D611D221F749F08
:101B40003327A00D611D231F849F600D211D822F4F
:101B5000762F6A2F11249F5750408AF0E1F0882396
:101B60004AF0EE0FFF1FBB1F661F771F881F9150A3
:101B70005040A9F79E3F510570F05CCFA6CF5F3F64
:101B8000ECF3983EDCF3869577956795B795F795D6
:101B9000E7959F5FC1F7FE2B880F911D969587955E
:101BA00097F9089523DF880B990B0895A1E21A2E67
:101BB000AA1BBB1BFD010DC0AA1FBB1FEE1FFF1FF1
:101BC000A217B307E407F50720F0A21BB30BE40B41
:101BD000F50B661F771F881F991F1A9469F7609588
:101BE0007095809590959B01AC01BD01CF01089542
:101BF0000FD0A59F900DB49F900DA49F800D911DB7
:101C000011240895EE0FFF1F0590F491E02D099423
:101C1000A29FB001B39FC001A39F700D811D11242D
:101C2000911DB29F700D811D1124911D0895F8948E
:021C3000FFCFE4
:101C3200010204081020408001020408FF02040887
:101C42001020408001020408102040000000000023
:101C5200000000020202020303030303030303055D
:101C62000505050505050001020304050607000137
:101C72000203FF0102030405060700010203040533
:101C820006000000008A03DD010A02F4033B021988
:101C9200022D021B055E02470208040000000099A3
:101CA200046B04B70417045D043E0424040D0A0007
:101CB200626F6F74005363616E6E696E672E2E2EB3
:101CC200004932432064657669636520666F756EEC
:101CD20064206174206164647265737320307800DB
:101CE200300020202100556E6B6E6F776E2065727A
:101CF200726F722061742061646472657373203044
:101D020078004E6F204932432064657669636573BB
:101D120020666F756E640A00646F6E650A00636800
:101D2200002062763A002073763A002075613A000C
:101D320020616363006E616E00696E66006F766695
:061D4200006D6168000065
:00000001FF
